:020000040800F2
:103000000004002001310008573100084F3100084A
:103010005331000849310008A932000800000000BF
:103020000000000000000000000000005B3100080C
:103030004D310008000000005931000845320008F9
:103040001B3100081B3100081B3100081B31000830
:103050001B3100081B3100081B3100081B31000820
:103060001B3100081B3100081B3100081B31000810
:103070001B3100081B3100081B3100081B31000800
:103080001B3100081B3100081B3100081B310008F0
:103090001B3100081B3100081B3100081B310008E0
:1030A0001B3100081B3100081B3100081B310008D0
:1030B0001B3100081B3100081B3100081B310008C0
:1030C0001B3100081B3100081B3100081B310008B0
:1030D0001B3100081B3100081B3100081B310008A0
:1030E0001B3100081B3100081B310008DFF80CD031
:1030F00000F018F800480047CD3200080004002016
:103100000648804706480047FEE7FEE7FEE7FEE781
:10311000FEE7FEE7FEE7FEE7FEE7FEE749320008CE
:10312000ED300008064C074D06E0E06840F0010372
:1031300094E8070098471034AC42F6D3FFF7DAFF63
:103140000C3300081C33000800BFFEE7704700BFC7
:10315000FEE700BFFEE770477047704710B500F00C
:1031600001F810BD0CB500200190009033480068B4
:1031700040F480303149086000BF3048006800F4F6
:10318000003000900198401C0190009818B90198F7
:10319000B0F5A06FF1D12948006800F4003010B1FB
:1031A0000120009001E0002000900098012843D108
:1031B0002348006840F01000214908600846006874
:1031C00020F0030008600846006840F00200086034
:1031D0001A484068194948600846406848600846EF
:1031E000406840F4806048600846406820F47C10E5
:1031F00048600846406840F4E810486008460068A7
:1032000040F08070086000BF0C48006800F000705B
:103210000028F9D00948406820F0030007494860B9
:103220000846406840F00200486000BF034840681C
:1032300000F00C000828F9D10CBD0000001002407D
:10324000002002407047000010B51348006840F0AD
:1032500001001149086008464068104908400E49BD
:103260004860084600680E4908400B490860084657
:10327000006820F4802008600846406820F4FE00C2
:1032800048604FF41F008860FFF768FF4FF0006050
:103290000449086010BD0000001002400000FFF863
:1032A000FFFFF6FE08ED00E000BFFEE702E008C801
:1032B000121F08C1002AFAD170477047002001E0B0
:1032C00001C1121F002AFBD1704700000D48806920
:1032D00040F004000B4988610B48006820F00F00A3
:1032E000094908600846006840F003000860064885
:1032F0001030006840F0010003491031086000BF41
:10330000FEE7000000100240000801401C330008E6
:0C3310000000002000040000BC32000897
:04000005080030EDD2
:00000001FF
