:020000040800F2
:10000000380800202101000825070008150600080F
:10001000210700082F0200088F0C000800000000D4
:10002000000000000000000000000000CD080008F3
:100030008903000800000000D5070008B90900087E
:100040003B0100083B0100083B0100083B010008A0
:100050003B0100083B0100083B0100083B01000890
:100060003B0100083B0100083B0100083B01000880
:100070003B0100083B0100083B0100083B01000870
:100080003B0100083B0100083B0100083B01000860
:100090003B0100083B0100083B0100083B01000850
:1000A0003B0100083B0100083B0100083B01000840
:1000B0001D0A00083B0100083B0100083B01000845
:1000C0003B0100083B0100083B0100083B01000820
:1000D0003B010008A90A0008050B0008070B0008EF
:1000E0003B0100083B0100083B010008DFF80CD091
:1000F00000F06CF8004800475D1100083808002047
:10010000EFF30980704780F309887047EFF30880A8
:10011000704780F30888704740BA7047C0BA70478C
:100120000648804706480047FEE7FEE7FEE7FEE791
:10013000FEE7FEE7FEE7FEE7FEE7FEE7BD09000893
:10014000ED000008D2B201E000F8012B491EFBD2FD
:1001500070470022F6E710B513460A4604461946D2
:10016000FFF7F0FF204610BD2DE9F05F05460020A7
:1001700092469B4688460646814640241BE0284618
:1001800041464746224600F042F853465A46C01AB6
:10019000914110D311461846224600F029F82D1A35
:1001A00067EB01084F4622460120002100F020F8AD
:1001B00017EB00094E41201EA4F10104DFDC484684
:1001C00031462A464346BDE8F09F0000064C074DE5
:1001D00006E0E06840F0010394E807009847103417
:1001E000AC42F6D3FFF786FF101400083014000865
:1001F000202A04DB203A00FA02F1002070479140E7
:10020000C2F1200320FA03F3194390407047202ADB
:1002100004DB203A21FA02F00021704721FA02F3B0
:10022000D040C2F12002914008431946704700BFF8
:10023000FEE700002DE9F04100240027354D364E41
:10024000012080F3108800BF00F02CF932480838F4
:100250000068324908600846006800F0E1F830495B
:10026000086000202F4908600EE02E4909682A4ADC
:10027000531403FB012000F089F82B49087029482A
:100280000068401C2749086026480068244909681E
:10029000884203D2244800780428E6D02248007817
:1002A000042805D021A000F0F5FC0020BDE8F08175
:1002B00024A000F0EFFC1948007800F0030028B1FA
:1002C00016480068012101EB900702E0134800681E
:1002D0008708002410E03046296800F0ADF8306847
:1002E0002968884205D021461CA000F0D3FC0020DC
:1002F000DCE7361D2D1D641CBC42ECD31DA000F0B4
:10030000C9FC00F083F8002080F3108800BF0120B2
:10031000CCE700000098000800300008140000201E
:100320000C0000200800002010000020464C415323
:10033000485F457261736550616765206572726FD1
:10034000720D0A00464C4153485F45726173655017
:10035000616765204F4B0D0A0000000050726F6707
:1003600072616D20576F7264204552524F522025A2
:10037000640D0A0050726F6772616D576F7264206E
:100380004F4B0D0A000000007047000030B50446D6
:1003900004254FF4302000F091F80546042D17D1C4
:1003A0000C48006940F002000A49086108464461AF
:1003B000006940F0400008614FF4302000F07EF802
:1003C00005460448006941F6FD710840014908618D
:1003D000284630BD0020024004200B49C96801F0C6
:1003E000010109B101200EE00749C96801F00401CB
:1003F00009B1022007E00449C96801F0100109B100
:10040000032000E0042070470020024003480069F8
:1004100040F0800001490861704700000020024060
:1004200001B500200099C1F309021AB1012202EBC3
:10043000912000E0880A08BD78B506460C460425E0
:1004400000200090E80200F039F80546042D24D180
:100450001348006940F00100114908613480E80246
:1004600000F02CF80546042D10D1B01C0090200C93
:1004700000990880E80200F021F805460848006964
:1004800041F6FE7108400649086106E0044800692B
:1004900041F6FE71084002490861284678BD000017
:1004A0000020024002480349486003484860704702
:1004B0002301674500200240AB89EFCD00B502461D
:1004C0000423FFF789FF034603E0FFF785FF034698
:1004D000521E012B01D1002AF7D102B9052318467B
:1004E00000BD2DE9F0410246002500260020002332
:1004F0000024002791F803C00CF00F0591F803C009
:100500000CF0100CBCF1000F03D091F802C04CEAC3
:10051000050591F800C0BCF1000F31D0146800202F
:100520002BE04FF0010C0CFA00F3B1F800C00CEA1C
:1005300003069E4220D183004FF00F0C0CFA03F704
:10054000BC4305FA03FC4CEA040491F803C0BCF177
:10055000280F06D14FF0010C0CFA00FCC2F814C0B1
:100560000AE091F803C0BCF1480F05D14FF0010C2F
:100570000CFA00FCC2F810C0401C0828D1D314604B
:10058000B1F800C0BCF1FF0F34DD546800202EE04C
:1005900000F1080C4FF0010808FA0CF3B1F800C0A4
:1005A0000CEA03069E4221D183004FF00F0C0CFA97
:1005B00003F7BC4305FA03FC4CEA040491F803C0BA
:1005C000BCF1280F05D100F1080C08FA0CF8C2F8AC
:1005D000148091F803C0BCF1480F07D100F1080C5A
:1005E0004FF0010808FA0CF8C2F81080401C0828E7
:1005F000CED35460BDE8F0810246002093680B40E2
:100600000BB1012000E0002070474161704701619B
:100610007047000008A000F03DFB00BF0A480068DA
:1006200000F4E06009490843001D07490860BFF372
:100630004F8F00BF00BFFEE74861726420466175BE
:100640006C74210D0A0000000CED00E00000FA05BA
:1006500008B50121042000F0BFF80820ADF8000023
:1006600048208DF8030069460B48FFF73AFF102039
:10067000ADF8000048208DF8030069460648FFF7F2
:1006800030FF2020ADF8000048208DF803006946B7
:100690000148FFF726FF08BD0008014070B5044679
:1006A0000D4629462046FFF7A7FF40B900BF29465F
:1006B0002046FFF7A1FF0028F9D0002070BD0120DF
:1006C000FCE7000010B54FF480710248FFF79DFF72
:1006D00010BD00000008014010B54FF480710248C1
:1006E000FFF795FF10BD00000008014008B501218B
:1006F000042000F071F810208DF803000001ADF81F
:10070000000003208DF8020069460448FFF7E9FE67
:100710004FF480710148FFF778FF08BD00080140E1
:1007200000BFFEE7704708B54FF4407000F048F88E
:1007300025208DF8000000208DF8010001208DF8A3
:1007400002008DF80300684600F002F808BD0000C2
:1007500070B5002100230F22C47804B3154C24681F
:1007600004F4E064C4F5E064210AC1F10403CA4062
:10077000447804FA03F184781440214309010E4CB3
:100780000678A155047804F01F050124AC400578D3
:100790006D11AD0005F1E025C5F8004109E00478D0
:1007A00004F01F050124AC40044D0678761145F88D
:1007B000264070BD0CED00E000E400E080E100E0C8
:1007C00002490143024A1160704700000000FA0527
:1007D0000CED00E07047000029B1064A926902431F
:1007E000044B9A6104E0034A92698243014B9A6187
:1007F000704700000010024030B5002100220024A4
:1008000000232D4D6D6805F00C0121B1042905D0A0
:10081000082923D105E0294D056022E0274D056018
:100820001FE0254D6D6805F47012234D6D6805F4C9
:100830008034022505EB92421CB9214D55430560D9
:100840000BE01D4D6D6805F400351DB11C4D554381
:10085000056002E0194D5543056002E0174D056043
:1008600000BF00BF144D6D6805F0F0010909154D7A
:100870006B5C0568DD4045600F4D6D6805F4E06117
:10088000090A104D6B5C4568DD4085600A4D6D6856
:1008900005F46051C90A0B4D6B5C4568DD40C560CD
:1008A000054D6D6805F44041890B074D6B5CC568CB
:1008B000B5FBF3F5056130BD0010024000127A006F
:1008C00000093D002000002030000020704710B5D6
:1008D00000F002F810BD00000CB50020019000905F
:1008E0003348006840F480303149086000BF304828
:1008F000006800F4003000900198401C01900098BE
:1009000018B90198B0F5A06FF1D12948006800F43A
:10091000003010B10120009001E00020009000980C
:10092000012843D12348006840F0100021490860A5
:100930000846006820F0030008600846006840F0A0
:10094000020008601A484068194948600846406833
:1009500048600846406840F4806048600846406847
:1009600020F47C1048600846406840F4E810486075
:100970000846006840F08070086000BF0C480068BE
:1009800000F000700028F9D00948406820F003000A
:10099000074948600846406840F00200486000BFD0
:1009A0000348406800F00C000828F9D10CBD000095
:1009B00000100240002002407047000010B51348AC
:1009C000006840F00100114908600846406810497D
:1009D00008400E494860084600680E4908400B4927
:1009E00008600846006820F48020086008464068D7
:1009F00020F4FE0048604FF41F008860FFF767FF97
:100A00004FF000600449086010BD00000010024073
:100A10000000FFF8FFFFF6FE08ED00E07047000061
:100A200010B586B0044601218803FFF7D5FE4FF4C8
:100A30000070ADF8140018208DF8170003208DF811
:100A4000160005A91648FFF74CFD4FF48060ADF87D
:100A5000140004208DF8170005A91148FFF741FD87
:100A600001940020ADF80800ADF80A00ADF80C00C4
:100A7000ADF810000C20ADF80E0001A9094800F0F7
:100A800091F8FFF750FE012240F22551054800F091
:100A900063F80121034800F046F806B010BD0000DD
:100AA000000801400038014010B51CE00120114948
:100AB0000870114800F0E2F8C4B210490888411CDF
:100AC0000E4A11800E490C5440F225510A4800F09C
:100AD0001BF8FFF701FE09480088B0F5806F02DBC4
:100AE0000020064908802021034800F028F801284A
:100AF000DCD010BD1D000020003801401E00002089
:100B0000380000207047704710B50022002340F6DF
:100B10006A14A14200D100BF0A1201249440A3B27A
:100B2000DC43048010BD21B1828942F400528281ED
:100B300004E082894DF6FF731A40828170470246B5
:100B40000020B1F5007F00D100BF13880B400BB12E
:100B5000012000E000207047F0B503460024002685
:100B60000025002040F66A17B94200D100BF1846A0
:100B7000C1F3421401F01F06012707FA06F5012C04
:100B800001D10C3004E0022C01D1103000E014300F
:100B90001AB107682F43076002E00768AF43076098
:100BA000F0BD00002DE9F04786B005460E46002452
:100BB000A24600BFA1460027B08900B100BF2F4662
:100BC0002C8A4CF6FF700440F08804432C82AC89D8
:100BD0004EF6F3100440B088318908437189084308
:100BE0000443AC81AC8A4FF6FF400440B089044313
:100BF000AC8201A8FFF700FE1F48874202D1DDF852
:100C000010A001E0DDF80CA0A88900F4004040B17C
:100C10000AEBCA0000EB0A1031684900B0FBF1F89A
:100C200007E00AEBCA0000EB0A1031688900B0FB4C
:100C3000F1F86420B8FBF0F004012009642101FB05
:100C40001089A88900F4004040B1322000EBC900AF
:100C5000B0FBF1F000F00700044308E0322000EBA5
:100C600009106421B0FBF1F000F00F0004432C8167
:100C700006B0BDE8F08700000038014001468888D2
:100C8000C0F308007047C1F308028280704700BFBC
:100C9000FEE700000FB4054B10B503A9044A029803
:100CA00000F018F810BC5DF814FB000039110008C2
:100CB0003400002002E008C8121F08C1002AFAD13F
:100CC00070477047002001E001C1121F002AFBD1CC
:100CD000704700002DE9FF4F8DB00F4605460026F6
:100CE00006E025280BD0DDE90F1290476D1C761C1D
:100CF00028780028F5D111B03046BDE8F08F0024E7
:100D0000A246A1460122EC4900E0044315F8013F48
:100D1000203B02FA03F00842F7D128782A2810D0A5
:100D20006FF02F022878A0F13001092914D80AEBBE
:100D30008A0102EB410144F0020400EB010A6D1C40
:100D4000F0E701CF5FEA000A03D544F40054CAF18A
:100D5000000A44F002046D1C28782E2817D115F8DB
:100D6000010F44F004042A280ED06FF02F022878D7
:100D7000A0F1300109290AD809EB890102EB4101F0
:100D800000EB01096D1CF2E757F8049B6D1C2878F5
:100D90006C280FD006DC4C2817D068280DD06A28A4
:100DA00014D104E0742810D07A280FD10DE044F457
:100DB00000140AE044F4801401E044F4401469781B
:100DC000814202D104F580146D1C6D1C2A786E2AB4
:100DD0001FD00CDC632A31D004DC002A8BD0582AC7
:100DE00011D1A3E0642A68D0692A0CD165E0732A86
:100DF0002ED004DC6F2A73D0702A04D19BE0752AB0
:100E00006FD0782A6ED01046DDE90F129047761C1D
:100E100050E1C4F30250022806D0032809D0042868
:100E200001CF09D0066045E101CFF117C0E90061AB
:100E300040E101CF06803DE106703BE117F8040B6D
:100E40008DF8000000208DF80100EB46012003E042
:100E500057F804BB4FF0FF3061074FF0000102D498
:100E60000DE008F10101884649450FDA8045F8DBBD
:100E70001BF808100029F4D108E008F101018846A8
:100E80008142FADB1BF808100029F6D1DDE90F23B7
:100E9000AAEB08008146214600F036F9304400EB09
:100EA000080604E0DDE90F121BF8010B9047B8F1CA
:100EB0000108F7D221464846F7E00A21C4F302535D
:100EC0004FF0000B0891022B04D001CFC117032B68
:100ED00009D00AE0FF1D27F00707F7E8020108E044
:100EE00032E01FE020E000B2C117042B01D140B274
:100EF000C117031E71F1000307DA4FF0000CD0EBAD
:100F00000C006CEB01012D2302E0230504D52B23FB
:100F10008DF82430012303E0E30701D02023F7E715
:100F2000984658E00A2110E010210EE010204FF002
:100F3000000B08900CE010214FF0000B44F004046B
:100F40004FF00809089103E008214FF0000B0891C9
:100F5000C4F30253022B04D001CF0021032B06D08F
:100F600006E0FF1D27F00707F7E8020103E080B263
:100F7000042B00D1C0B24FF0000823072BD5702AF4
:100F800007D0DDF820C08CF0100C5CEA0B0C05D00B
:100F90000EE040238DF82430012308E050EA0103DD
:100FA00006D030238DF824308DF825200223984672
:100FB000DDF820C08CF0080C5CEA0B0C0BD150EA79
:100FC000010301D1630706D530238DF824304FF09B
:100FD0000108A9F10109582A04D038A20B9208AAE5
:100FE0000A920BE03AA2F9E75B46089AFFF7BCF8D1
:100FF0000B9B9B5C0A9A521E0A92137050EA0102E4
:10100000F2D10A98ADEB000000F1200B600702D589
:1010100024F4803401E04FF00109D94502DDA9EB49
:101020000B0000E0002000EB0B0141440890AAEB0C
:10103000010AE00306D4DDE90F232146504600F003
:1010400063F806444FF0000908E009A911F8090007
:10105000DDE90F12904709F10109761CC145F4DB67
:10106000E0030CD5DDE90F232146504600F04CF893
:10107000064404E0DDE90F1230209047761C089901
:10108000481E08900029F5DC08E00A980A990078C3
:10109000491C0A91DDE90F129047761CBBF1000153
:1010A000ABF1010BF1DC21465046DDE90F2300F0E6
:1010B00019F806446D1C1BE6092801003031323353
:1010C0003435363738396162636465660000000084
:1010D000303132333435363738394142434445466E
:1010E000000000002DE9F041044600251E46174689
:1010F000880404D405E039462020B0476D1C641EE6
:10110000F9D52846BDE8F0812DE9F04104460025D7
:101110001E469046C80301D5302700E020278804EA
:1011200004D505E041463846B0476D1C641EF9D52C
:101130002846BDE8F081000070B504460D46E1B2D6
:101140000548FFF7A0FD00BF80210348FFF7F7FC2B
:101150000028F9D0204670BD0038014000BF4FF490
:1011600080615C48FEF7F5FFFFF772FA4FF4E1305B
:10117000FFF756FCFFF7BAFA57A0FFF78BFD60A008
:10118000FFF788FD68A0FFF785FD5DA0FFF782FDF2
:1011900051A0FFF77FFD6E4801686EA0FFF77AFD52
:1011A00096E07248008872490880724800886F494A
:1011B00008806F4800880988884205D16D480088FA
:1011C00010B101206C4908706B48007801280BD1E0
:1011D0006A480078012807D10020684908706548EE
:1011E000018867A0FFF756FD08216C48FFF756FA03
:1011F00000283BD172B66A4D364FFFF753F95D4870
:101200000088FFF70DF98046002404E005EB8420F8
:10121000FFF7BCF8641C4445F8D356490988C81C3C
:10122000C11700EB91718E10002405E002CF284613
:10123000FFF702F92D1D641CB442F7D34448001F88
:10124000FFF7A4F84B4801884148001FFFF7F4F866
:101250004FF0AA313E48FFF7EFF8FFF7D7F800202C
:10126000444908804FA0FFF715FD00BF10214B48EF
:10127000FFF714FA58B936480068B0F1AA3F06D112
:1012800051A0FFF707FDFEF7D5FFFFF71BFA20215E
:101290004248FFF703FAD8B92D48001D00685149AC
:1012A0000840B0F1005F13D14FA0FFF7F3FC2848CE
:1012B000001D4068544908600846006853490860AA
:1012C0002349091D0868FEF724FF5048006880473D
:1012D00067E700003800002044454255472D2D3E69
:1012E0002D2D2D2D2D2D2D2D2D2D2D2D2D2D2D2D2E
:1012F0002D2D2D2D2D2D2D2D2D2D2D0D0A000000E8
:1013000044454255472D2D3E2020202020202020DE
:1013100020202020202020202020202020202020CD
:101320002020200D0A00000044454255472D2D3E47
:1013300020202020202020424F4F544C4F41444534
:10134000522072756E2120202020200D0A000000FE
:10135000FC2F0008557064617465466C6167203A23
:101360002025303858202020200000001A000020BE
:10137000180000201E0000201C0000201D0000207E
:10138000546F74616C205061636B657420697320C5
:10139000256420427974650D0A00000000080140B0
:1013A00000980008415050322052656365697665A7
:1013B000205061636B657420537563636573736656
:1013C000756C210D0A000000537461727420436F24
:1013D0007079204170703220546F2041707031213B
:1013E0000D0A00000000FE2F424F4F544C4F414465
:1013F00045522D2D3E20204A756D7020746F20417E
:10140000505031210D0A000004000020000000208F
:10141000301400080000002038000000B40C000860
:10142000681400083800002000080000C40C000800
:1014300000000000000000000000000000000000AC
:101440000400000000000000000000000000000098
:10145000000000000102030401020304060708095A
:08146000020406080000000070
:04000005080000ED02
:00000001FF
